:1000000045C000004BC0000049C0000047C00000D0
:1000100045C0000043C0000041C000003FC00000D8
:100020003DC000003BC0000039C0000037C00000E8
:1000300035C0000033C0000031C000002FC00000F8
:100040002DC000002BC0000029C0000027C0000008
:1000500025C0000023C0000021C000001FC0000018
:100060001DC000001BC0000019C0000017C0000028
:1000700015C0000013C0000011C000000FC0000038
:100080000DC000000BC0000009C0000011241FBEFD
:10009000CFEFD0E1DEBFCDBF71D09EC0B1CF909386
:1000A000900089B98AB188618AB9E5E9F0E0808178
:1000B0008660808308955D9BFECF8CB90895AF92D2
:1000C000BF92CF92DF92EF92FF920F931F93CF9345
:1000D000DF9300D000D0CDB7DEB78C01181619061B
:1000E0000CF03DC0E0E0F0E00F2EFAE0EF2EF12C36
:1000F000F02D04C01216130664F022C0B70145D0DB
:10010000CB019F012F5F3F4F181619069CF7F9018D
:10011000F5CFCE0101967C015C01A20EB31E0F2E1D
:10012000FAE0CF2ED12CF02DC801B6012ED0805D83
:10013000D7018D937D01062F172FAA15BB05A1F7B7
:10014000FF236CF0CE0101968C01020F131F7C017E
:10015000F80182918F01AFDFE016F106C9F70F9029
:100160000F900F900F90DF91CF911F910F91FF9003
:10017000EF90DF90CF90BF90AF90089583E390E031
:100180008EDF8CE090E09BDFFCCF97FB072E16F410
:10019000009406D077FD08D00BD007FC05D03EF4C4
:1001A000909581959F4F0895709561957F4F089523
:1001B000AA1BBB1B51E107C0AA1FBB1FA617B7078D
:1001C00010F0A61BB70B881F991F5A95A9F78095A9
:0C01D0009095BC01CD010895F894FFCF7C
:00000001FF
